{"abi":[{"type":"constructor","inputs":[],"stateMutability":"nonpayable"},{"type":"function","name":"flip","inputs":[],"outputs":[],"stateMutability":"nonpayable"},{"type":"function","name":"getValue","inputs":[],"outputs":[{"name":"","type":"bool","internalType":"bool"}],"stateMutability":"nonpayable"}],"bytecode":{"object":"0x6080604052348015600f57600080fd5b506000805460ff19166001179055609f8061002b6000396000f3fe6080604052348015600f57600080fd5b506004361060325760003560e01c806320965255146037578063cde4efa9146051575b600080fd5b60005460ff16604051901515815260200160405180910390f35b60676000805460ff19811660ff90911615179055565b00fea26469706673582212204f050f779258f3a4ede330d615eeeaf9a520af78c497da63cbbe931d045bb0c264736f6c63430008130033","linkReferences":{}},"methodIdentifiers":{"flip()":"cde4efa9","getValue()":"20965255"},"id":20}